:100000000C9462000C948A000C948A000C948A0070
:100010000C948A000C948A000C948A000C948A0038
:100020000C948A000C948A000C948A000C948A0028
:100030000C948A000C948A000C948A000C948A0018
:100040000C9449020C948A000C94B9020C9493020B
:100050000C948A000C948A000C948A000C948A00F8
:100060000C948A000C948A000000000024002700F1
:100070002A0000000000250028002B0000000000DE
:1000800023002600290004040404040404040202DA
:100090000202020203030303030301020408102007
:1000A0004080010204081020010204081020000012
:1000B0000008000201000003040700000000000027
:1000C00000009A0411241FBECFEFD8E0DEBFCDBFE1
:1000D00021E0A8E2B1E001C01D92A33DB207E1F723
:1000E00011E0A0E0B1E0E4E4FEE002C005900D9272
:1000F000A832B107D9F710E0C2E6D0E004C02197DA
:10010000FE010E942805C136D107C9F70E94EB0203
:100110000C9420070C940000AF92BF92CF92DF9214
:10012000EF92FF920F931F93CF93DF936C017B01AC
:100130008B01040F151FEB015E01AE18BF08C0173D
:10014000D10759F06991D601ED91FC910190F081B0
:10015000E02DC6010995892B79F7C501DF91CF9173
:100160001F910F91FF90EF90DF90CF90BF90AF90D5
:100170000895FC01538D448D252F30E0842F90E0AD
:10018000821B930B541710F0CF9608950197089592
:10019000FC01918D828D981761F0A28DAE0FBF2F5B
:1001A000B11D5D968C91928D9F5F9F73928F90E0B1
:1001B00008958FEF9FEF0895FC01918D828D981720
:1001C00031F0828DE80FF11D858D90E008958FEF5D
:1001D0009FEF0895FC01918D228D892F90E0805C26
:1001E0009F4F821B91098F739927089588E291E0B0
:1001F0000E94EA0021E0892B09F420E0822F089573
:1002000080E090E0892B29F00E94F60081110C9487
:1002100000000895FC01A48DA80FB92FB11DA35AA9
:10022000BF4F2C91848D90E001968F739927848F16
:10023000A689B7892C93A089B1898C918370806439
:100240008C93938D848D981306C00288F389E02DDA
:1002500080818F7D80830895EF92FF920F931F938B
:10026000CF93DF93EC0181E0888F9B8D8C8D981369
:100270001AC0E889F989808185FF15C09FB7F89475
:10028000EE89FF896083E889F989808183708064C1
:1002900080839FBF81E090E0DF91CF911F910F910C
:1002A000FF90EF900895F62E0B8D10E00F5F1F4F1B
:1002B0000F731127E02E8C8D8E110CC00FB607FC2A
:1002C000FACFE889F989808185FFF5CFCE010E94B8
:1002D0000A01F1CFEB8DEC0FFD2FF11DE35AFF4F1B
:1002E000F0829FB7F8940B8FEA89FB898081806246
:1002F000CFCFCF93DF93EC01888D8823B9F0AA8903
:10030000BB89E889F9898C9185FD03C0808186FDD0
:100310000DC00FB607FCF7CF8C9185FFF2CF80811F
:1003200085FFEDCFCE010E940A01E9CFDF91CF9189
:100330000895833081F028F4813099F08230A9F05B
:1003400008958730A9F08830C9F08430B1F48091E5
:1003500080008F7D03C0809180008F778093800024
:10036000089584B58F7784BD089584B58F7DFBCFC4
:100370008091B0008F778093B00008958091B00095
:100380008F7DF9CF1F93CF93DF93282F30E0F901B2
:10039000E255FF4F8491F901E656FF4FD491F901E0
:1003A000EA57FF4FC491CC23A9F0162F81110E9468
:1003B0009901EC2FF0E0EE0FFF1FEE58FF4FA591D3
:1003C000B4918FB7F894EC91111108C0D095DE2349
:1003D000DC938FBFDF91CF911F910895DE2BF8CF73
:1003E000CF93DF9390E0FC01E656FF4F24918A57AC
:1003F0009F4FFC0184918823D1F090E0880F991FD2
:10040000FC01E859FF4FA591B491FC01EE58FF4F54
:10041000C591D49161110EC09FB7F8948C91E22FD1
:10042000E0958E238C932881E223E8839FBFDF91A0
:10043000CF9108958FB7F894EC91E22BEC938FBF96
:10044000F6CF0F931F93CF93DF93EC0188819981AF
:10045000009759F02A813B812617370730F081E059
:10046000DF91CF911F910F9108958B016F5F7F4FA7
:100470000E945306009759F0998388831B830A834F
:100480002C813D81232B59F7FC011082E8CF80E0BD
:10049000E7CF1F920F920FB60F9211242F933F9325
:1004A0008F939F93AF93BF938091CB019091CC0199
:1004B000A091CD01B091CE013091CA0123E0230F6C
:1004C0002D3758F50196A11DB11D2093CA018093C7
:1004D000CB019093CC01A093CD01B093CE0180913C
:1004E000C6019091C701A091C801B091C9010196C0
:1004F000A11DB11D8093C6019093C701A093C801AF
:10050000B093C901BF91AF919F918F913F912F916E
:100510000F900FBE0F901F90189526E8230F02969C
:10052000A11DB11DD2CF1F920F920FB60F921124B1
:100530002F933F934F935F936F937F938F939F93EB
:10054000AF93BF93EF93FF9388E291E00E940A017B
:10055000FF91EF91BF91AF919F918F917F916F919B
:100560005F914F913F912F910F900FBE0F901F9071
:1005700018951F920F920FB60F9211242F938F93FD
:100580009F93EF93FF93E0913801F09139018081BF
:10059000E0913E01F0913F0182FD1BC0908180916E
:1005A00041018F5F8F7320914201821741F0E091EA
:1005B0004101F0E0E85DFE4F958F80934101FF918E
:1005C000EF919F918F912F910F900FBE0F901F90E1
:1005D00018958081F4CFCF93DF93CDB7DEB76097C6
:1005E0000FB6F894DEBF0FBECDBF789484B582609D
:1005F00084BD84B5816084BD85B5826085BD85B5C7
:10060000816085BD80916E00816080936E00109244
:1006100081008091810082608093810080918100BF
:100620008160809381008091800081608093800050
:100630008091B10084608093B1008091B0008160AE
:100640008093B00080917A00846080937A008091DA
:100650007A00826080937A0080917A008160809332
:100660007A0080917A00806880937A001092C100AD
:1006700060E08AE00E94F00161E088E00E94F00101
:1006800061E089E00E94F00161E08BE00E94F001EE
:1006900061E088E00E94C201E0913801F0913901E7
:1006A00082E08083E0913401F09135011082E09185
:1006B0003601F09137018FEC808310924001E09178
:1006C0003C01F0913D0186E08083E0913A01F09198
:1006D0003B01808180618083E0913A01F0913B0190
:1006E000808188608083E0913A01F0913B018081B4
:1006F00080688083E0913A01F0913B0180818F7D99
:10070000808390E2892E912C20E9222E20E0322E47
:10071000412C512C320143948E010F5F1F4F40E05A
:10072000A42E40E0B42E60E088E00E94C201C12CFB
:10073000F12CE12CB4010E2C02C0759567950A943A
:10074000E2F761708BE00E94C20161E089E00E94E3
:10075000C201E8EBF0E08491E4EAF0E0F491F88B78
:10076000F101D490DD2009F4BAC081110E949901F1
:10077000ED2DF0E0EE0FFF1FE458FF4FA591B4916F
:100780008C91B301A2010E2C04C0440F551F661FAB
:10079000771F0A94D2F7F8898F2309F4A0C0C42ADE
:1007A00060E089E00E94C2018FEFE81AF80A98E041
:1007B000E916F10409F0BECFC092C50161E088E0FE
:1007C0000E94C2011B861A861D861C861F861E86F5
:1007D0004AE0B8018C2D90E00E94C704F801019016
:1007E0000020E9F731977F01E01AF10AB701CE0145
:1007F0000A960E9421022A853B8581117DC0211520
:10080000310519F0C9010E94CA051B861A861F8688
:100810001E861D861C861A8219821C821B821E82DD
:100820001D826BE070E0C8010E94210229813A819B
:10083000811169C02115310519F0C9010E94CA054D
:100840001A8219821E821D821C821B82CA84DB844A
:10085000C114D10409F461C0EE84FF84E114F104F1
:10086000B1F08D819E81E80EF91EB701C8010E948A
:100870002102882309F451C029813A818D819E810A
:10088000B601820F931F0E941907FE82ED824D81EF
:100890005E8169817A8188E291E00E948C0042E069
:1008A00050E064E271E088E291E00E948C0089816E
:1008B0009A81009711F00E94CA058A859B8500974E
:1008C00011F00E94CA05A114B10409F42CCF0E94B2
:1008D000F600882309F427CF0E94000024CFD3011B
:1008E000C2010E2C04C0880F991FAA1FBB1F0A94B7
:1008F000D2F78095C82254CFFF86EE86B801C90191
:100900000E94190788CF8BE090E09E838D8368E179
:1009100071E0C9010E94190799CF89819A810097D6
:1009200011F00E94CA051A8219821E821D821C8241
:100930001B82ADCFE8E2F1E01382128288EE93E0F1
:10094000A0E0B0E084839583A683B7838AE091E03A
:100950009183808385EC90E09587848784EC90E098
:100960009787868780EC90E0918B808B81EC90E07C
:10097000938B828B82EC90E0958B848B86EC90E05D
:10098000978B868B118E128E138E148E0895BB2733
:10099000FB015527AA27880F991FAA1FA41710F03B
:1009A000A41B83955051B9F7A05DAA3308F0A95D47
:1009B000A193009779F7B111B1931192CB010C94E7
:1009C000E104DC01FC01672F71917723E1F7329795
:1009D00004C07C916D9370836291AE17BF07C8F31A
:1009E00008952F923F924F925F926F927F928F92D3
:1009F0009F92AF92BF92CF92DF92EF92FF920F93AE
:100A00001F93CF93DF93CDB7DEB7CA1BDB0B0FB6B7
:100A1000F894DEBF0FBECDBF09942A883988488874
:100A20005F846E847D848C849B84AA84B984C8840A
:100A3000DF80EE80FD800C811B81AA81B981CE0F01
:100A4000D11D0FB6F894DEBF0FBECDBFED010895E6
:100A5000EE0FFF1F0590F491E02D09940F931F9363
:100A6000CF93DF938230910510F482E090E0E09123
:100A7000D101F091D20130E020E0B0E0A0E0309769
:100A800099F42115310509F44AC0281B390B24308B
:100A90003105D8F58A819B816115710589F1FB01CA
:100AA00093838283FE0111C04081518102811381B1
:100AB00048175907E0F04817590799F4109761F063
:100AC00012960C93129713961C933296CF01DF91D6
:100AD000CF911F910F9108950093D1011093D201EE
:100AE000F4CF2115310551F04217530738F0A90111
:100AF000DB019A01BD01DF01F801C1CFEF01F9CFA0
:100B00009093D2018093D101CDCFFE01E20FF31F6C
:100B1000819391932250310939832883D7CF209133
:100B2000CF013091D001232B41F42091020130916B
:100B300003013093D0012093CF0120910001309127
:100B400001012115310541F42DB73EB74091040153
:100B500050910501241B350BE091CF01F091D0019C
:100B6000E217F307A0F42E1B3F0B2817390778F084
:100B7000AC014E5F5F4F2417350748F04E0F5F1FE3
:100B80005093D0014093CF01819391939FCFF0E098
:100B9000E0E09CCFCF93DF930097E9F0FC01329720
:100BA00013821282A091D101B091D201ED0130E007
:100BB00020E01097A1F420813181820F931F2091B2
:100BC000CF013091D0012817390709F061C0F093A7
:100BD000D001E093CF01DF91CF910895EA01CE17C4
:100BE000DF07E8F54A815B819E0141155105B1F7A8
:100BF000E901FB83EA8349915991C40FD51FEC1792
:100C0000FD0761F4808191810296840F951FE901AF
:100C100099838883828193819B838A83F0E0E0E0DB
:100C200012968D919C9113970097B9F52D913C9157
:100C30001197CD010296820F931F2091CF01309121
:100C4000D0012817390739F6309751F51092D201A3
:100C50001092D101B093D001A093CF01BCCFD38328
:100C6000C28340815181840F951FC817D90761F451
:100C70004E5F5F4F88819981480F591F5183408390
:100C80008A819B81938382832115310509F0B0CF3E
:100C9000F093D201E093D1019ECFFD01DC01C0CFE2
:100CA00013821282D7CFB0E0A0E0E9E5F6E00C9421
:100CB000F3048C01009751F4CB010E942E058C01A6
:100CC000C801CDB7DEB7E0E10C940F05FC01E60FDB
:100CD000F71F9C0122503109E217F30708F49DC069
:100CE000D901CD91DC911197C617D70798F0C5307F
:100CF000D10530F3CE0104978617970708F3C61B7A
:100D0000D70B2297C193D1936D937C93CF010E940F
:100D1000CA05D6CF5B01AC1ABD0A4C018C0E9D1ED4
:100D2000A091D101B091D201512C412CF12CE12C98
:100D3000109731F58091CF019091D00188159905D8
:100D400009F05CC04616570608F058C080910001B3
:100D500090910101009741F48DB79EB74091040135
:100D600050910501841B950BE817F90708F055C051
:100D7000F093D001E093CF01F90171836083A0CF9C
:100D80008D919C91119712966C90129713967C906E
:100D90001397A815B90559F56C0142E0C40ED11C92
:100DA000CA14DB0420F1AC014A195B09DA0112967E
:100DB000159780F06282738251834083D9016D93CD
:100DC0007C93E114F10471F0D7011396FC93EE9338
:100DD000129776CF22968C0F9D1FF9019183808305
:100DE000F301EFCFF093D201E093D10169CF481620
:100DF000590608F42C017D01D3019ACFCB010E9442
:100E00002E057C01009749F0AE01B8010E94100741
:100E1000C8010E94CA05870153CF10E000E050CFFF
:100E2000FB01DC0102C001900D9241505040D8F707
:100E30000895FB01DC0101900D920020E1F7089577
:040E4000F894FFCF54
:100E44000000D3018000000000002C018C00B900D8
:100E54007901EA00C800DC00536C617665206461A6
:080E640074613A000D0A000060
:00000001FF
