:100000000C946D000C9495000C9495000C94950044
:100010000C9495000C9495000C9495000C9495000C
:100020000C9495000C9495000C9495000C949500FC
:100030000C9495000C9495000C9495000C949500EC
:100040000C9401080C9495000C94CF070C94A9070C
:100050000C9495000C9495000C9495000C949500CC
:100060000C944B080C94950000000008000201005D
:1000700000030407000000000000000030353A349F
:10008000303A333200446563203139203230323225
:100090000000000000250028002B000000000024C4
:1000A0000027002A000404040404040404020202D9
:1000B00002020203030303030301020408102040A9
:1000C000800102040810200102040810201F1C1FD8
:1000D0001E1F1E1F1F1E1F1E770911241FBECFEFDC
:1000E000D8E0DEBFCDBF23E0A6E8B1E001C01D929D
:1000F000A631B207E1F711E0A0E0B1E0E8E8FCE1E9
:1001000002C005900D92A638B107D9F710E0CDE6F0
:10011000D0E004C02197FE010E94170DCC36D10714
:10012000C9F70E94140A0C94420E0C94000090E04F
:10013000FC01E754FF4F24918B559F4FFC018491A4
:10014000882399F090E0880F991FFC01E556FF4F36
:10015000A591B491FC01EF56FF4F859194918FB713
:10016000F894EC91E22BEC938FBF089508950895D5
:10017000AF92BF92CF92DF92EF92FF920F931F93B5
:10018000CF93DF936C017B018B01040F151FEB01F3
:100190005E01AE18BF08C017D10759F06991D601AA
:1001A000ED91FC910190F081E02DC6010995892B1C
:1001B00079F7C501DF91CF911F910F91FF90EF90DB
:1001C000DF90CF90BF90AF900895FC01538D448D88
:1001D000252F30E0842F90E0821B930B541710F0F2
:1001E000CF96089501970895FC01918D828D9817FF
:1001F00061F0A28DAE0FBF2FB11D5D968C91928DD7
:100200009F5F9F73928F90E008958FEF9FEF089507
:10021000FC01918D828D981731F0828DE80FF11DD0
:10022000858D90E008958FEF9FEF0895FC01918DEB
:10023000228D892F90E0805C9F4F821B91098F73E4
:10024000992708958BE492E00E94160121E0892B02
:1002500009F420E0822F089580E090E0892B29F0B6
:100260000E94220181110C9400000895FC01A48DCC
:10027000A80FB92FB11DA35ABF4F2C91848D90E0C8
:1002800001968F739927848FA689B7892C93A089AB
:10029000B1898C91837080648C93938D848D981335
:1002A00006C00288F389E02D80818F7D80830895C8
:1002B000EF92FF920F931F93CF93DF93EC0181E0B6
:1002C000888F9B8D8C8D98131AC0E889F98980815D
:1002D00085FF15C09FB7F894EE89FF896083E88990
:1002E000F98980818370806480839FBF81E090E082
:1002F000DF91CF911F910F91FF90EF900895F62E0F
:100300000B8D10E00F5F1F4F0F731127E02E8C8DA8
:100310008E110CC00FB607FCFACFE889F9898081ED
:1003200085FFF5CFCE010E943601F1CFEB8DEC0FAA
:10033000FD2FF11DE35AFF4FF0829FB7F8940B8F0A
:10034000EA89FB8980818062CFCFCF93DF93EC0174
:10035000888D8823B9F0AA89BB89E889F9898C91AD
:1003600085FD03C0808186FD0DC00FB607FCF7CF69
:100370008C9185FFF2CF808185FFEDCFCE010E9469
:100380003601E9CFDF91CF91089590E0FC01E85963
:10039000FF4F2491FC01E754FF4F3491FC01EB55D2
:1003A000FF4FE491EE23C9F0222339F0233001F10D
:1003B000A8F4213019F1223029F1F0E0EE0FFF1FEF
:1003C000EF56FF4FA591B4918FB7F894EC9161115E
:1003D00026C030953E233C938FBF08952730A9F067
:1003E0002830C9F0243049F7809180008F7D03C008
:1003F000809180008F7780938000DFCF84B58F77E6
:1004000084BDDBCF84B58F7DFBCF8091B0008F772B
:100410008093B000D2CF8091B0008F7DF9CF3E2B7A
:10042000DACF3FB7F8948091CF019091D001A0919D
:10043000D101B091D20126B5A89B05C02F3F19F07C
:100440000196A11DB11D3FBFBA2FA92F982F882754
:10045000BC01CD01620F711D811D911D42E0660F2F
:10046000771F881F991F4A95D1F708950895209105
:10047000A701260F3327331F21323105ECF42091D9
:100480002102FC0190E080E0243069F082E00895D0
:10049000A091A7012191AC0149575E4FA40FB52F40
:1004A000B11D2C930196861798F38091A701680FD0
:1004B0006093A70180E0089581E0089510922102E1
:1004C00081E0809320021092FB0161E082E10E94B2
:1004D000C50161E083E10E94C501E9EBF0E08081A4
:1004E0008E7F808380818D7F808388E48093B800B5
:1004F00085E48093BC000895CF93DF9391E09093BF
:1005000086018823B9F0C091B800D091BA008091DB
:10051000BC008A7B8093BC0060E082E10E94C50140
:1005200060E083E10E94C5010E945E02D093BA00A0
:10053000C093B800DF91CF9108958F929F92AF92B0
:10054000BF92CF92DF92EF92FF920F931F93CF93C0
:10055000DF93D0914A02D13208F0D7C0182FC09152
:1005600049020E9411026B017C01809121028111DC
:100570006BC082E080932102109320028FEF809362
:100580001F0210921E02D0931D02A9E2B2E0EDEF0D
:10059000F1E080E0D81391C01092FC018091FC0141
:1005A000CC0FC82BC093FC018091FB01813009F076
:1005B00088C01092FB010E9411026B017C018091A6
:1005C000FC018093BB008091230290912402A091B2
:1005D0002502B0912602892B8A2B8B2BA1F00E9439
:1005E00011020091230210912402209125023091E2
:1005F00026026C197D098E099F090617170728071F
:10060000390708F442C08091BC0083FDD8CF85EC47
:100610008093BC000E9411026B017C018091210239
:10062000823009F450C080911F028F3F09F46FC0DF
:1006300080911F02803209F46CC080911F028033C8
:1006400009F469C084E026C08091230290912402BD
:10065000A0912502B0912602892B8A2B8B2B09F4BD
:1006600084CF0E9411028090230290902402A090D7
:100670002502B09026026C197D098E099F09861605
:100680009706A806B90608F070CF809122020E9452
:100690007C0285E01092280210924A0210922702F2
:1006A000DF91CF911F910F91FF90EF90DF90CF904E
:1006B000BF90AF909F908F9008959D9191938F5F81
:1006C00069CF85EEA5CF8091230290912402A0915D
:1006D0002502B0912602892B8A2B8B2B09F49ECF01
:1006E0000E94110200912302109124022091250200
:1006F000309126026C197D098E099F09061717078C
:100700002807390708F08ACFC0CF81E0C3CF80E047
:10071000C1CF82E0BFCF83E0BDCFCF93DF93EC01A9
:100720008B818823A1F0888191E0909327028093A8
:1007300049021092280210924A0281E00E949D0212
:1007400091E0811190E0892FDF91CF91089510926F
:10075000DA011092D9011092280210924A020E94E6
:100760005E0286EB90E09093D6018093D50187EBF3
:1007700090E09093D4018093D30181E08B83CE01EC
:100780000E948D03982F8111CECFDDCF0895E09187
:10079000DA018091D901E81730F4F0E0E552FE4F1C
:1007A000808190E008958FEF9FEF08959091DA0196
:1007B0008091D9012FEF3FEF981748F4E92FF0E02F
:1007C000E552FE4F208130E09F5F9093DA01C9012E
:1007D00008958091D9019091DA01891B990B0895B0
:1007E000CF92DF92EF92FF920F931F93CF93DF93FD
:1007F0007C01CB018A0120912702222389F0EB01A1
:100800006B01C40ED51ECC15DD0569F06991D701C9
:10081000ED91FC910190F081E02DC7010995F3CF96
:10082000642F0E943702C801DF91CF911F910F9171
:10083000FF90EF90DF90CF900895CF93DF931F92BA
:10084000CDB7DEB76983209127022223F9F02091EA
:100850004A02203258F021E030E0FC013383228349
:1008600090E080E00F90DF91CF9108958091280271
:10087000E82FF0E0E75DFD4F998190838F5F8093D3
:10088000280280934A0281E090E0ECCF61E0CE0143
:1008900001960E943702F7CF90E080E008951F9301
:1008A000CF93DF93DC011496ED91FC91E417F507EB
:1008B00010F490E01FC0122FEA01FC0181819281A7
:1008C000208131E0309327022093490210922802C0
:1008D00010924A02DC01ED91FC910280F381E02D3F
:1008E0000995C817D90729F7812F0E949D0291E029
:1008F0008111DFCF892FDF91CF911F9108952F9222
:100900003F924F925F926F927F928F929F92AF929F
:10091000BF92CF92DF92EF92FF920F931F93CF93EC
:10092000DF935C011B016A01F12CE12CD5011496C7
:100930008D919C9186010E191F098017910708F46B
:100940008C01F501D0810E9411022B013C018091A4
:100950002102811172C0C02F013208F0C0E2F1E023
:10096000F093210221E0C601801B910BE816F906E5
:1009700008F420E0209320028FEF80931F02109252
:100980001E028C0F80931D02A1E0A093FC018091B8
:10099000FC01DD0FD82BD093FC018091FB0181304D
:1009A00009F090C01092FB010E9411022B013C0142
:1009B0008091FC018093BB008091230290912402DE
:1009C000A0912502B0912602892B8A2B8B2BA1F0B6
:1009D0000E941102209123023091240240912502AD
:1009E0005091260264197509860997092617370759
:1009F0004807590708F442C08091BC0083FDD8CF56
:100A0000B5ECB093BC000E9411022B013C01809117
:100A10002102813009F45AC080911E028C1710F413
:100A2000C0911E02ADEFB1E0EBEDF1E080E08C177C
:100A300051F19D9191938F5FFACF80912302909114
:100A40002402A0912502B0912602892B8A2B8B2BA0
:100A500009F47DCF0E9411022091230230912402DB
:100A6000409125025091260264197509860997095B
:100A7000261737074807590708F069CF80912202E7
:100A80000E947C02C0E01092DA01C093D901C01725
:100A9000110609F057C041018E0C9F1CE401CE01E4
:100AA000881999098017910798F5D50111968D91AC
:100AB0009C91DC01ED91FC910284F385E02D099578
:100AC0008993EDCFE5EEE093BC009DCF80912302AA
:100AD00090912402A0912502B0912602892B8A2BA5
:100AE0008B2B09F494CF0E941102209123023091A4
:100AF0002402409125025091260264197509860945
:100B00009709261737074807590708F080CFB6CF4F
:100B1000E00EF11EEC14FD0408F408CF81E0DF9133
:100B2000CF911F910F91FF90EF90DF90CF90BF90EA
:100B3000AF909F908F907F906F905F904F903F907D
:100B40002F90089580E0EBCFCF93DF9300D0CDB707
:100B5000DEB78FE08A8321E041E050E0BE016E5FA6
:100B60007F4F8091D7019091D8010E944F0441E0BE
:100B700050E0BE016F5F7F4F8091D7019091D80107
:100B80000E947F0489810F900F90DF91CF9108958B
:100B9000CF93DF93EC0160E08E810E94C50161E09C
:100BA0008E810E94C50160E08E810E94C5018BE8A4
:100BB00091E00197F1F7DF91CF910895CF92DF9205
:100BC000EF92FF920F931F93CF93DF936C017C0101
:100BD00087E0E80EF11CD0E0C0E0062F10E0B8017D
:100BE0000C2E02C0759567950A94E2F76170F701C3
:100BF00081917F010E94C5012196C430D10579F70A
:100C0000C601DF91CF911F910F91FF90EF90DF9080
:100C1000CF900C94C805CF92DF92EF92FF920F9382
:100C20001F93CF93DF93EC01F62E642F8C810E94EB
:100C3000C5018D818F3F19F060E00E94C5010F2D25
:100C400010E08F8584FF25C06E0187E0C80ED11C9F
:100C5000F12CE12CB8010E2C02C0759567950A9411
:100C6000E2F76170F60181916F010E94C501FFEF0B
:100C7000EF1AFF0A88E0E816F10461F7CE01DF9170
:100C8000CF911F910F91FF90EF90DF90CF900C9438
:100C9000C805B80184E0759567958A95E1F7CE019E
:100CA0000E94DE056F2DCE01DF91CF911F910F9134
:100CB000FF90EF90DF90CF900C94DE0540E0682F1E
:100CC00084EF92E00C940B06CF93DF93823029F4EB
:100CD000909103039860909303038093070310920D
:100CE000080380E48093090380E180930A0380E590
:100CF00080930B038091F8020E9497008091F90283
:100D00008F3F11F00E9497008091FA020E94970095
:100D1000C4EFD2E09E01245F32408091030384FD42
:100D20000AC084E090E02196281739073CF48E81B0
:100D30000E949700EFCF88E090E0F5CF8BE39DE035
:100D40000197F1F760E08091F8020E94C50160E030
:100D50008091FA020E94C5018091F9028F3F19F03B
:100D600060E00E94C5018091030384FD39C063E007
:100D700084EF92E00E94DE05CBE4D6E4CE01019739
:100D8000F1F763E084EF92E00E94DE052197F1F72E
:100D900063E084EF92E00E94DE0583E592E0019734
:100DA000F1F762E084EF92E00E94DE058091030398
:100DB00080620E945E0684E0809304038CE00E94BF
:100DC0005E0681E00E945E068BE39FE10197F1F7EA
:100DD00082E08093050386E0DF91CF910C945E065C
:100DE00080620E945E068BE496E40197F1F78091A1
:100DF000030380620E945E0683E592E00197F1F7AB
:100E00008091030380620E945E06D0CF41E00E9481
:100E10000B0681E090E0089541E0682F84EF92E0B6
:100E20000E940B0681E090E00895FB0101900020F4
:100E3000E9F73197AF01461B570BDC01ED91FC91AF
:100E40000280F381E02D09948F929F92AF92BF921E
:100E50000F931F93CF93DF93CDB7DEB7A1970FB654
:100E6000F894DEBF0FBECDBF19A2423008F44AE0AD
:100E70008E010F5D1F4F842E912CB12CA12CA5014A
:100E800094010E94F50CE62FB901CA01EA3004F57D
:100E9000E05DD801EE938D01232B242B252B79F7D0
:100EA00090E080E0109729F0BD0184EF92E00E946D
:100EB0001507A1960FB6F894DEBF0FBECDBFDF9128
:100EC000CF911F910F91BF90AF909F908F900895F9
:100ED000E95CDFCF682F70E090E080E04AE00C949E
:100EE000240785ED8093BC00809123029091240219
:100EF000A0912502B09126020796A11DB11D23E005
:100F0000B695A795979587952A95D1F72091BC001E
:100F100024FD03C0109221020895409123025091B4
:100F200024026091250270912602452B462B472B07
:100F300069F30097A105B10541F025E32A95F1F782
:100F400000000197A109B109E1CF809122020C9420
:100F50007C021F920F920FB60F9211242F933F9392
:100F60004F935F936F937F938F939F93AF93BF93B1
:100F7000EF93FF938BE492E00E943601FF91EF9193
:100F8000BF91AF919F918F917F916F915F914F91A1
:100F90003F912F910F900FBE0F901F9018951F92A9
:100FA0000F920FB60F9211242F938F939F93EF936D
:100FB000FF93E0915B02F0915C028081E09161021D
:100FC000F091620282FD1BC09081809164028F5F6C
:100FD0008F7320916502821741F0E0916402F0E086
:100FE000E55BFD4F958F80936402FF91EF919F9198
:100FF0008F912F910F900FBE0F901F9018958081A9
:10100000F4CF1F920F920FB60F9211242F933F939C
:101010008F939F93AF93BF938091CB019091CC011D
:10102000A091CD01B091CE013091CA0123E0230FF0
:101030002D3758F50196A11DB11D2093CA0180934B
:10104000CB019093CC01A093CD01B093CE018091C0
:10105000CF019091D001A091D101B091D201019620
:10106000A11DB11D8093CF019093D001A093D10118
:10107000B093D201BF91AF919F918F913F912F91EA
:101080000F900FBE0F901F90189526E8230F029621
:10109000A11DB11DD2CF1F920F920FB60F92112436
:1010A0002F933F934F935F936F937F938F939F9370
:1010B000AF93BF93EF93FF938091B900887F803601
:1010C00009F44AC0F0F5883209F4A7C018F5803158
:1010D00009F49BC0B8F4882309F4F9C0883009F4F6
:1010E00094C0FF91EF91BF91AF919F918F917F91AC
:1010F0006F915F914F913F912F910F900FBE0F9085
:101100001F901895883109F488C0803251F7809378
:101110001F0214C0803409F49DC040F48033B9F339
:101120008833F9F680931F0285ECB0C0803509F44E
:1011300085C0883509F496C0883499F60E947107F5
:10114000D0CF883909F48CC038F5883729F050F4AD
:10115000883611F0803729F683E0809321021092BF
:10116000C90157C0883809F47BC0803919F080382C
:1011700009F0B7CF8091C901803208F071C0E091C9
:10118000C90181E08E0F8093C9018091BB00F0E01E
:10119000E755FE4F80833DC0803B39F0E0F4803A54
:1011A00009F479C0883A09F09CCF84E08093210249
:1011B0001092A8011092A701E091D501F091D601FB
:1011C00009958091A70181110FC081E08093A7014B
:1011D0001092870109C0803C09F4A6CF883C09F42D
:1011E000A3CF883B09F07DCFE091A80181E08E0F6D
:1011F0008093A801F0E0E957FE4F80818093BB0007
:101200009091A8018091A70129C08091FC01809351
:10121000BB0085EC8093BC0064CF90911E0280914E
:101220001D02981758F5E0911E0281E08E0F809301
:101230001E02F0E0E350FE4F8081E9CFE0911E02F4
:1012400081E08E0F80931E028091BB00F0E0E3509E
:10125000FE4F808390911E0280911D029817C8F264
:1012600085E8D8CFE0911E0281E08E0F80931E02A8
:101270008091BB00F0E0E350FE4F8083809120021C
:1012800081115CCF81E08093FB0184EA8093BC00F4
:101290001092210226CF85EC8093BC00109221028F
:1012A0008091C901803230F4E091C901F0E0E75546
:1012B000FE4F10826091C90170E0E091D301F0917E
:1012C000D40189EA91E009951092C9010ACF1092E0
:1012D0001F0234CFFC01908190539A3008F090E0C7
:1012E000818180532AE0929F800D112408951092ED
:1012F0004E0210924D0288EE93E0A0E0B0E08093A1
:101300004F0290935002A0935102B09352022AE0F0
:1013100031E030934C0220934B0225EC30E03093C7
:1013200058022093570224EC30E030935A02209365
:10133000590220EC30E030935C0220935B0221ECF8
:1013400030E030935E0220935D0222EC30E0309377
:10135000600220935F0226EC30E03093620220931B
:10136000610210926402109265021092660210925D
:1013700067021092EB021092EA028093EC029093C3
:10138000ED02A093EE02B093EF028CE191E0909316
:10139000E9028093E8021092110310921003109258
:1013A0000F0310920C03EDECF0E081E08C3049F07B
:1013B0009491823009F49F5F21E0280F31969923A0
:1013C00089F180930D0381E080930E031092F70260
:1013D0001092F6028EE291E09093F5028093F4026F
:1013E00082E08093F8028FEF8093F90283E080938C
:1013F000FA0284E08093FB0285E08093FC0286E0A1
:101400008093FD0287E08093FE021092FF0210920B
:10141000000310920103109202031092030381E073
:101420000C946406822FC2CFCF93DF93CDB7DEB783
:101430002D970FB6F894DEBF0FBECDBF789484B55C
:10144000826084BD84B5816084BD85B5826085BDC0
:1014500085B5816085BD80916E00816080936E004E
:101460001092810080918100826080938100809140
:1014700081008160809381008091800081608093F1
:1014800080008091B10084608093B1008091B000B1
:1014900081608093B00080917A00846080937A00AC
:1014A00080917A00826080937A0080917A008160D6
:1014B00080937A0080917A00806880937A001092FD
:1014C000C100E0915B02F0915C0282E08083E091D8
:1014D0005702F09158021082E0915902F0915A029D
:1014E0008FEC808310926302E0915F02F0916002C2
:1014F00086E08083E0915D02F0915E0280818061F0
:101500008083E0915D02F0915E028081886080833B
:10151000E0915D02F0915E02808180688083E091BD
:101520005D02F0915E0280818F7D808382E00E9467
:1015300064068091D7019091D801009711F00E9424
:10154000B90D86E090E00E941D0D7C0188E6F70150
:10155000808388EE92E092838183138280E290E020
:1015600095838483F092D801E092D7011092DA013A
:101570001092D9011092280210924A020E945E0233
:1015800086EB90E09093D6018093D50187EB90E0B5
:101590009093D4018093D30181E0F7018383C70145
:1015A0000E948D0381110DC066E371E08BE492E02F
:1015B0000E9415076EE471E08BE492E00E9415072B
:1015C000FFCF0E94A40590E0880F892F881F990BF8
:1015D000892B09F402C161E571E08BE492E00E947D
:1015E00015076EE471E08BE492E00E9415074BE072
:1015F00050E065E870E0CE0101960E94CC0CCE016F
:101600000A960E946A09082FE981E154E331D8F46F
:101610000E2E000CFF0BE15FF44F0C94170D780BAE
:10162000230B230B8C0B230B220B230B230B230BE2
:101630006C0B230B230B7F0B8A0B880B230B230BC9
:10164000230B860B12E0CE0105960E946A09F82E44
:1016500048E050E06CE770E0CE0101960E94CC0CAF
:10166000CE0101960E946A09E82ECE0104960E94DE
:101670006A09D82ECE0107960E946A09382F1A826D
:1016800019822AE0622F0E94D50C982F880F890FAB
:10169000880F830F8A838D2D0E94D50C982F880F79
:1016A000890F880F8D0D8B838E2D0E94D50C982F5E
:1016B000880F890F880F8E0D8C83602F70E02F2D7F
:1016C00030E0EDECF0E081E0811740F59491290FD6
:1016D000311D8F5F3196F8CF8A8111E0813609F490
:1016E000B2CF8B8117E08E3609F0ADCF16E0ABCFCD
:1016F0008B8118E0823709F0A6CF14E0A4CF8B814C
:1017000015E0823709F09FCF13E09DCF19E09BCF02
:101710001AE099CF1BE097CF1CE095CF133028F04B
:10172000802F837011F42F5F3F4FCB010396969566
:10173000879596958795EDE6F1E06E9FA0016F9FE6
:10174000500D7E9F500D11244B5F5F4F840F951FEE
:10175000820F931F67E070E00E94E10C811101C0CD
:1017600087E08D832AE08F2D622F0E94D50C982F61
:10177000880F890F880F8F0D8E83812F0E94D50CC3
:10178000982F990F890F880F180F1F83802F0E94A1
:10179000D50C982F880F890F880F800F888721E03C
:1017A00048E050E0BE016F5F7F4F8091D70190917C
:1017B000D8010E944F040E94A4059FE09C878F7768
:1017C0008D8721E042E050E0BE01645F7F4F809151
:1017D000D7019091D8010E944F0400E010E01982D7
:1017E000E090D701F090D80120E041E050E0BE0148
:1017F0006F5F7F4FC7010E944F04882341F047E08D
:1018000050E0BE016F5F7F4FC7010E947F04E981F6
:10181000EF77FA81AB815D814E814F778F81282FE1
:1018200030E094E0359527959A95E1F7922F990F3E
:10183000990F291B220F280F20930C03842F90E06F
:1018400024E0959587952A95E1F7982F990F990FA0
:10185000891B880F840F80930D03652F70E034E09F
:10186000759567953A95E1F7862F880F880F681B65
:10187000660F650F60930E034A2F50E064E05595A4
:1018800047956A95E1F7842F880F880F481B440F0E
:101890004A0F40930F032F2F30E074E035952795C2
:1018A0007A95E1F7822F880F880F281B220F2F0FC0
:1018B000209310038E2F90E0F4E095958795FA958C
:1018C000E1F7982F990F990F891B880F8E0F80933E
:1018D0001103E1E0809107038111E0E0E195F0E080
:1018E000EC50FD4F848980680E945E0664E771E0D9
:1018F00084EF92E00E94150780910E030E946A0710
:101900008FE20E940C0780910D030E946A078FE20C
:101910000E940C0760910C0370E06053784F90E0D8
:1019200080E04AE00E942407E0910703E23090F54E
:10193000E150F0E0EC50FD4F848980680E945E0623
:101940006AE771E084EF92E00E94150780910F032F
:101950000E946A078AE30E940C07809110030E948C
:101960006A078AE30E940C07809111030E946A07AC
:1019700060E871E084EF92E00E94150701151105FF
:1019800009F42DCF0E942201882309F428CF0E9458
:10199000000025CFE1E0CDCFFB01DC0102C00590C6
:1019A0000D9241505040D8F70895991B79E004C03A
:1019B000991F961708F0961B881F7A95C9F780958E
:1019C0000895AA1BBB1B51E107C0AA1FBB1FA61786
:1019D000B70710F0A61BB70B881F991F5A95A9F7D8
:1019E00080959095BC01CD010895A1E21A2EAA1B05
:1019F000BB1BFD010DC0AA1FBB1FEE1FFF1FA217BF
:101A0000B307E407F50720F0A21BB30BE40BF50BBB
:101A1000661F771F881F991F1A9469F76095709544
:101A2000809590959B01AC01BD01CF010895EE0F0B
:101A3000FF1F0590F491E02D09940F931F93CF930E
:101A4000DF938230910510F482E090E0E09114037E
:101A5000F091150330E020E0B0E0A0E0309799F479
:101A60002115310509F44AC0281B390B24303105F2
:101A7000D8F58A819B816115710589F1FB019383FA
:101A80008283FE0111C04081518102811381481778
:101A90005907E0F04817590799F4109761F012962A
:101AA0000C93129713961C933296CF01DF91CF912E
:101AB0001F910F9108950093140310931503F4CF11
:101AC0002115310551F04217530738F0A901DB0108
:101AD0009A01BD01DF01F801C1CFEF01F9CF909369
:101AE000150380931403CDCFFE01E20FF31F819302
:101AF00091932250310939832883D7CF2091120343
:101B000030911303232B41F4209102013091030102
:101B100030931303209312032091000130910101AF
:101B20002115310541F42DB73EB740910401509184
:101B30000501241B350BE0911203F0911303E2170A
:101B4000F307A0F42E1B3F0B2817390778F0AC01E0
:101B50004E5F5F4F2417350748F04E0F5F1F5093BD
:101B6000130340931203819391939FCFF0E0E0E041
:101B70009CCFCF93DF930097E9F0FC01329713825B
:101B80001282A0911403B0911503ED0130E020E022
:101B90001097A1F420813181820F931F20911203AD
:101BA000309113032817390709F061C0F09313032C
:101BB000E0931203DF91CF910895EA01CE17DF077A
:101BC000E8F54A815B819E0141155105B1F7E901B4
:101BD000FB83EA8349915991C40FD51FEC17FD0788
:101BE00061F4808191810296840F951FE9019983A8
:101BF0008883828193819B838A83F0E0E0E0129660
:101C00008D919C9113970097B9F52D913C91119767
:101C1000CD010296820F931F20911203309113037E
:101C20002817390739F6309751F51092150310929D
:101C30001403B0931303A0931203BCCFD383C283C6
:101C400040815181840F951FC817D90761F44E5FF9
:101C50005F4F88819981480F591F518340838A8142
:101C60009B81938382832115310509F0B0CFF093D6
:101C70001503E09314039ECFFD01DC01C0CF138256
:081C80001282D7CFF894FFCFC8
:101C8800000016038000000000005801B800E500BD
:101C9800A5011601F4000801000000001D04F0036E
:101CA8004C04C603E903D603C70300000000060777
:101CB800B8004C04360220525443204D6F64756CB2
:101CC80065206E6F742050726573656E74000D0A1E
:101CD8000052544320706F776572206661696C7595
:101CE80072652C2072657365742074686520746948
:101CF8006D652100446174653A0054696D653A0068
:061D080020202020000055
:00000001FF
